:100000000C945D000C9485000C9485000C94850084
:100010000C9485000C9485000C9485000C9485004C
:100020000C9485000C9485000C9485000C94BB0204
:100030000C9485000C9485000C9485000C9485002C
:100040000C94F1030C9485000C94B7030C947C037E
:100050000C9485000C9485000C9485000C9485000C
:100060000C9485000C9485000000000024002700FB
:100070002A0000000000250028002B0004040404CE
:100080000404040402020202020203030303030342
:10009000010204081020408001020408102001021F
:1000A00004081020000000070002010000030406FD
:1000B00000000000000000003B0411241FBECFEF31
:1000C000D8E0DEBFCDBF11E0A0E0B1E0E0E6FDE0AA
:1000D00002C005900D92A031B107D9F721E0A0E14F
:1000E000B1E001C01D92A43FB207E1F710E0CDE5F9
:1000F000D0E004C02197FE010E94A806CC35D107AC
:10010000C9F70E94AC040C940E060C940000CF9228
:10011000DF92EF92FF92DC01A03282E0B8070CF090
:100120003EC0B7FD06C0A53BB1052CF0A4EBB0E086
:1001300002C0A0E0B0E08091F20128E830E069015F
:10014000C81AD10887FDD394CC0CDD1CCC0CDD1C67
:100150000D2C000CEE08FF088091F30128E532E039
:10016000281B310987FD3395220F331F220F331FC0
:10017000A901330F660B770B9A01AB012C193D09CE
:100180004E095F090E943B0624EB30E040E050E05E
:100190000E941106C20ED31EE41EF51ED6019091D8
:1001A000F1019C3098F58091F20148E850E0481B3D
:1001B000510987FD5395440F551F440F551FA41730
:1001C000B5078CF08091F30128E532E0281B310956
:1001D00087FD3395220F331F220F331FAD012A17DE
:1001E0003B070CF4A9012FB7F894892F90E0FC018C
:1001F000EE0FFF1F8E0F9F1FFC01E453FE4F425076
:100200005109440F551F528341832FBFFF90EF9038
:10021000DF90CF9008950895CF92DF92EF92FF92F2
:100220000F931F93CF93DF936C01EB017B01E40EDF
:10023000F51E00E010E0CE15DF0561F06991D601F2
:10024000ED91FC910190F081E02DC6010995080F18
:10025000191FF1CFC801DF91CF911F910F91FF902E
:10026000EF90DF90CF9008950F931F93CF93DF937C
:10027000FC01A685B7858D01005C1F4FE8018881D0
:10028000998101968F739927AD014E5B5F4FEA010B
:100290002881398182179307D1F3E80128813981B8
:1002A000A20FB31F6C93A685B785A05CBF4F1196B4
:1002B0009C938E93A689B7892C9181E090E0078C5E
:1002C00002C0880F991F0A94E2F7822B8C9381E079
:1002D00081A30488F589E02D80818064808381E09A
:1002E00090E0DF91CF911F910F910895FC0181A1C2
:1002F000882329F0A489B5898C9186FFFBCF11A2B0
:100300000895FC01A485B585FD01E05CFF4F2081C7
:1003100031813296808191812817390779F0808167
:100320009181A80FB91F8C91208131812F5F3F4FA0
:100330002F7333273183208390E008958FEF9FEF51
:100340000895DC011C96ED91FC911D97DF01A05CE6
:10035000BF4F2D913C91119712968D919C911197C1
:100360002817390739F08D919C91E80FF91F80818A
:1003700090E008958FEF9FEF0895FC012485358567
:10038000F901E05CFF4F80819181329620813181BB
:10039000821B930B8F73992708958AEA91E00C943E
:1003A000BD018E3008F08E508770806480937C0091
:1003B00080917A00806480937A0080917A0086FD33
:1003C000FCCF809178002091790090E0922B0895E5
:1003D00090E0FC01EC55FF4F3491FC01E057FF4FDA
:1003E0002491FC01E458FF4FE491EE2309F43BC053
:1003F000332339F1333091F038F43130A9F0323011
:1004000001F584B58F7D12C0363091F03730A1F000
:100410003430B9F4809180008F7D03C080918000DA
:100420008F77809380000DC084B58F7784BD09C01D
:100430008091B0008F7703C08091B0008F7D809352
:10044000B000F0E0EE0FFF1FEE58FF4FA591B49102
:100450008FB7F894EC91611103C020952E2301C051
:100460002E2B2C938FBF0895CF93DF9390E0FC0148
:10047000E057FF4F2491FC01E458FF4F84918823FB
:1004800061F190E0880F991FFC01E859FF4FC59179
:10049000D491FC01EE58FF4FA591B491611109C0B0
:1004A0009FB7F8948881209582238883EC912E232E
:1004B0000BC0623061F49FB7F8943881822F809529
:1004C00083238883EC912E2B2C939FBF06C08FB77C
:1004D000F894E8812E2B28838FBFDF91CF91089568
:1004E0003FB7F8948091150190911601A0911701E2
:1004F000B091180126B5A89B05C02F3F19F00196B1
:10050000A11DB11D3FBFBA2FA92F982F8827820F99
:10051000911DA11DB11DBC01CD0142E0660F771FE9
:10052000881F991F4A95D1F70895CF92DF92EF92D5
:10053000FF92CF93DF936B017C010E947002EB016D
:10054000C114D104E104F10479F00E9470026C1B23
:100550007D0B683E7340A0F381E0C81AD108E10822
:10056000F108C851DC4FECCFDF91CF91FF90EF90B5
:10057000DF90CF9008951F920F920FB60F92112423
:100580002F933F934F935F936F937F938F939F939B
:10059000AF93BF93EF93FF938091210187FF05C035
:1005A00010928500109284001BC020912101022E20
:1005B000000C330B8091F00190E02817390784F488
:1005C00080912101082E000C990BFC01EE0FFF1FFA
:1005D0008E0F9F1FFC01E453FE4F808186FD15C0E6
:1005E000809121018F5F8093210120912101022EB2
:1005F000000C330B8091F00190E028173907C4F408
:10060000809121018C3064F113C080912101082E6A
:10061000000C990BFC01EE0FFF1F8E0F9F1FFC01BA
:10062000E453FE4F808160E08F730E94E801D8CFD1
:100630008091840090918500049680349C4918F440
:1006400080E49CE905C08091840090918500049627
:1006500090938900809388008FEF809321013BC0A5
:10066000209184003091850080912101082E000C9A
:10067000990BFC01EE0FFF1F8E0F9F1FFC01E4532F
:10068000FE4F81819281820F931F90938900809306
:10069000880080912101082E000C990BFC01EE0FBF
:1006A000FF1F8E0F9F1FFC01E453FE4F808186FFCA
:1006B00012C080912101082E000C990BFC01EE0F55
:1006C000FF1F8E0F9F1FFC01E453FE4F808161E0EE
:1006D0008F730E94E801FF91EF91BF91AF919F91BD
:1006E0008F917F916F915F914F913F912F910F90DB
:1006F0000FBE0F901F9018951F920F920FB60F927A
:1007000011242F933F938F939F93EF93FF93209107
:100710006201309163018091640190916501281715
:10072000390731F48091C1008F7D8093C10014C0DE
:10073000E0916401F0916501EE5DFE4F20818091B2
:1007400064019091650101968F73992790936501DB
:10075000809364012093C600FF91EF919F918F9148
:100760003F912F910F900FBE0F901F9018951F92E1
:100770000F920FB60F9211242F934F935F938F9385
:100780009F93EF93FF938091C00082FD1CC0209146
:10079000C6008091A6019091A70101968F739927B9
:1007A0004091A8015091A9018417950771F0E0913B
:1007B000A601F091A701EA59FE4F20839093A7016B
:1007C0008093A60102C08091C600FF91EF919F9196
:1007D0008F915F914F912F910F900FBE0F901F90AF
:1007E00018951F920F920FB60F9211242F933F93DB
:1007F0008F939F93AF93BF938091110190911201BA
:10080000A0911301B09114013091100123E0230F46
:100810002D3720F40196A11DB11D05C026E8230F38
:100820000296A11DB11D2093100180931101909398
:100830001201A0931301B0931401809115019091BE
:100840001601A0911701B09118010196A11DB11DCB
:100850008093150190931601A0931701B09318018E
:10086000BF91AF919F918F913F912F910F900FBEAC
:100870000F901F9018951092AD011092AC0188EE68
:1008800093E0A0E0B0E08093AE019093AF01A0931D
:10089000B001B093B10184E091E09093AB018093FB
:1008A000AA0186E691E09093B7018093B60182E2B7
:1008B00091E09093B9018093B80185EC90E090931A
:1008C000BB018093BA0184EC90E09093BD018093CA
:1008D000BC0180EC90E09093BF018093BE0181EC5D
:1008E00090E09093C1018093C00182EC90E09093DE
:1008F000C3018093C20186EC90E09093C501809380
:10090000C40184E08093C60183E08093C70187E03F
:100910008093C80185E08093C90181E08093CA017A
:100920008091F0018C30A0F491E0980F9093F00149
:100930008093F10190E0FC01EE0FFF1F8E0F9F1FCF
:10094000FC01E453FE4F88EB9BE092838183089582
:100950008FEF8093F1010895789484B5826084BD0F
:1009600084B5816084BD85B5826085BD85B58160B3
:1009700085BD80916E00816080936E001092810031
:1009800080918100826080938100809181008160EC
:1009900080938100809180008160809380008091AD
:1009A000B10084608093B1008091B0008160809339
:1009B000B00080917A00846080937A0080917A0000
:1009C000826080937A0080917A00816080937A00BF
:1009D00080917A00806880937A001092C1008091A3
:1009E000F1018C3008F051C061E089E00E943402CE
:1009F0008091F101E82FF0E09F01220F331FE20FF9
:100A0000F31FE453FE4F9081907C99609083109285
:100A1000F2011092F3016CE00E9474062CE0829FB8
:100A2000B001112440E050E09A01260F371FF90170
:100A3000EE0FFF1F2E0F3F1FF901E453FE4F908171
:100A400096FD16C04F5F5F4F4C30510569F781111D
:100A50000FC01092800082E0809381001092850088
:100A600010928400B19A80916F00826080936F0031
:100A7000E091F101F0E0CF01880F991FE80FF91F15
:100A8000E453FE4F80818064808360E08EE00E94AA
:100A9000340260E08FE00E943402E091BE01F091E8
:100AA000BF0181E090E09C010090CA0102C0220FCA
:100AB000331F0A94E2F72083E091BA01F091BB0161
:100AC0001082E091BC01F091BD012FEC20831092C7
:100AD000CB01E091C001F091C10140819C010090E7
:100AE000C60102C0220F331F0A94E2F7242B208391
:100AF000E091C001F091C10140819C010090C701CB
:100B000002C0220F331F0A94E2F7242B2083E091C6
:100B1000C001F091C10140819C010090C80102C058
:100B2000220F331F0A94E2F7242B2083E091C001A7
:100B3000F091C10120810090C90102C0880F991F66
:100B40000A94E2F7809582238083C1E0D0E09AE5A1
:100B5000F92E08E611E08EE00E94D1016C018FE0D1
:100B60000E94D1012DE2C21621E0D2062CF0D093D2
:100B70002001C0931F0104C01092200110921F0198
:100B80008D3291402CF0D0931E01C0931D0104C002
:100B900010921E0110921D0120911F013091200121
:100BA000220F331F80911D0190911E01280F391FC4
:100BB000F29EC001F39E900D112490931C0180932E
:100BC0001B01B8010E9480066C012091190130912F
:100BD0001A01C901B8010E948006C816D906D9F0C9
:100BE000265A3F4F30931A01209319018BE490E06D
:100BF0000E94870063EB71E080E090E00E94950224
:100C00008FE590E00E94870068EE73E080E090E05E
:100C10000E949502DACF0E94CD019DCFF8940C94EA
:100C2000AE06052E97FB1EF400940E94280657FD81
:100C300007D00E94430607FC03D04EF40C9428060C
:100C400050954095309521953F4F4F4F5F4F0895F8
:100C500090958095709561957F4F8F4F9F4F089528
:100C60000E946506A59F900DB49F900DA49F800DD6
:100C7000911D11240895B7FF0C9430060E94300690
:100C8000821B930B0895A1E21A2EAA1BBB1BFD0128
:100C90000DC0AA1FBB1FEE1FFF1FA217B307E4075B
:100CA000F50720F0A21BB30BE40BF50B661F771FB3
:100CB000881F991F1A9469F7609570958095909593
:100CC0009B01AC01BD01CF010895A29FB001B39F6C
:100CD000C001A39F700D811D1124911DB29F700D45
:100CE000811D1124911D0895991B79E004C0991F5D
:100CF000961708F0961B881F7A95C9F78095089576
:100D000097FB072E16F4009407D077FD09D00E94B8
:100D1000940607FC05D03EF4909581959F4F089569
:100D2000709561957F4F0895AA1BBB1B51E107C0C9
:100D3000AA1FBB1FA617B70710F0A61BB70B881F6B
:100D4000991F5A95A9F780959095BC01CD010895FA
:100D5000EE0FFF1F0590F491E02D0994F894FFCF5A
:100D60000000000034010C01BD018101A1017601E8
:00000001FF
